{
  "_format": "hh-sol-artifact-1",
  "contractName": "WhitelistMint",
  "sourceName": "contracts/WhiteListMint.sol",
  "abi": [
    {
      "inputs": [
        {
          "internalType": "string",
          "name": "tokenName",
          "type": "string"
        },
        {
          "internalType": "string",
          "name": "tokenSymbol",
          "type": "string"
        },
        {
          "internalType": "address[]",
          "name": "whitelistArray",
          "type": "address[]"
        },
        {
          "internalType": "string",
          "name": "_URI",
          "type": "string"
        },
        {
          "internalType": "address",
          "name": "forwarder",
          "type": "address"
        }
      ],
      "stateMutability": "nonpayable",
      "type": "constructor"
    },
    {
      "anonymous": false,
      "inputs": [
        {
          "indexed": true,
          "internalType": "address",
          "name": "owner",
          "type": "address"
        },
        {
          "indexed": true,
          "internalType": "address",
          "name": "approved",
          "type": "address"
        },
        {
          "indexed": true,
          "internalType": "uint256",
          "name": "tokenId",
          "type": "uint256"
        }
      ],
      "name": "Approval",
      "type": "event"
    },
    {
      "anonymous": false,
      "inputs": [
        {
          "indexed": true,
          "internalType": "address",
          "name": "owner",
          "type": "address"
        },
        {
          "indexed": true,
          "internalType": "address",
          "name": "operator",
          "type": "address"
        },
        {
          "indexed": false,
          "internalType": "bool",
          "name": "approved",
          "type": "bool"
        }
      ],
      "name": "ApprovalForAll",
      "type": "event"
    },
    {
      "anonymous": false,
      "inputs": [
        {
          "indexed": true,
          "internalType": "address",
          "name": "previousOwner",
          "type": "address"
        },
        {
          "indexed": true,
          "internalType": "address",
          "name": "newOwner",
          "type": "address"
        }
      ],
      "name": "OwnershipTransferred",
      "type": "event"
    },
    {
      "anonymous": false,
      "inputs": [
        {
          "indexed": true,
          "internalType": "address",
          "name": "from",
          "type": "address"
        },
        {
          "indexed": true,
          "internalType": "address",
          "name": "to",
          "type": "address"
        },
        {
          "indexed": true,
          "internalType": "uint256",
          "name": "tokenId",
          "type": "uint256"
        }
      ],
      "name": "Transfer",
      "type": "event"
    },
    {
      "inputs": [
        {
          "internalType": "address",
          "name": "to",
          "type": "address"
        },
        {
          "internalType": "uint256",
          "name": "tokenId",
          "type": "uint256"
        }
      ],
      "name": "approve",
      "outputs": [],
      "stateMutability": "nonpayable",
      "type": "function"
    },
    {
      "inputs": [
        {
          "internalType": "address",
          "name": "owner",
          "type": "address"
        }
      ],
      "name": "balanceOf",
      "outputs": [
        {
          "internalType": "uint256",
          "name": "",
          "type": "uint256"
        }
      ],
      "stateMutability": "view",
      "type": "function"
    },
    {
      "inputs": [
        {
          "internalType": "uint256",
          "name": "tokenId",
          "type": "uint256"
        }
      ],
      "name": "getApproved",
      "outputs": [
        {
          "internalType": "address",
          "name": "",
          "type": "address"
        }
      ],
      "stateMutability": "view",
      "type": "function"
    },
    {
      "inputs": [
        {
          "internalType": "address",
          "name": "owner",
          "type": "address"
        },
        {
          "internalType": "address",
          "name": "operator",
          "type": "address"
        }
      ],
      "name": "isApprovedForAll",
      "outputs": [
        {
          "internalType": "bool",
          "name": "",
          "type": "bool"
        }
      ],
      "stateMutability": "view",
      "type": "function"
    },
    {
      "inputs": [
        {
          "internalType": "address",
          "name": "forwarder",
          "type": "address"
        }
      ],
      "name": "isTrustedForwarder",
      "outputs": [
        {
          "internalType": "bool",
          "name": "",
          "type": "bool"
        }
      ],
      "stateMutability": "view",
      "type": "function"
    },
    {
      "inputs": [],
      "name": "maxSupply",
      "outputs": [
        {
          "internalType": "uint256",
          "name": "",
          "type": "uint256"
        }
      ],
      "stateMutability": "view",
      "type": "function"
    },
    {
      "inputs": [],
      "name": "mint",
      "outputs": [],
      "stateMutability": "payable",
      "type": "function"
    },
    {
      "inputs": [],
      "name": "name",
      "outputs": [
        {
          "internalType": "string",
          "name": "",
          "type": "string"
        }
      ],
      "stateMutability": "view",
      "type": "function"
    },
    {
      "inputs": [],
      "name": "owner",
      "outputs": [
        {
          "internalType": "address",
          "name": "",
          "type": "address"
        }
      ],
      "stateMutability": "view",
      "type": "function"
    },
    {
      "inputs": [
        {
          "internalType": "uint256",
          "name": "tokenId",
          "type": "uint256"
        }
      ],
      "name": "ownerOf",
      "outputs": [
        {
          "internalType": "address",
          "name": "",
          "type": "address"
        }
      ],
      "stateMutability": "view",
      "type": "function"
    },
    {
      "inputs": [],
      "name": "renounceOwnership",
      "outputs": [],
      "stateMutability": "nonpayable",
      "type": "function"
    },
    {
      "inputs": [
        {
          "internalType": "address",
          "name": "from",
          "type": "address"
        },
        {
          "internalType": "address",
          "name": "to",
          "type": "address"
        },
        {
          "internalType": "uint256",
          "name": "tokenId",
          "type": "uint256"
        }
      ],
      "name": "safeTransferFrom",
      "outputs": [],
      "stateMutability": "nonpayable",
      "type": "function"
    },
    {
      "inputs": [
        {
          "internalType": "address",
          "name": "from",
          "type": "address"
        },
        {
          "internalType": "address",
          "name": "to",
          "type": "address"
        },
        {
          "internalType": "uint256",
          "name": "tokenId",
          "type": "uint256"
        },
        {
          "internalType": "bytes",
          "name": "_data",
          "type": "bytes"
        }
      ],
      "name": "safeTransferFrom",
      "outputs": [],
      "stateMutability": "nonpayable",
      "type": "function"
    },
    {
      "inputs": [
        {
          "internalType": "address",
          "name": "operator",
          "type": "address"
        },
        {
          "internalType": "bool",
          "name": "approved",
          "type": "bool"
        }
      ],
      "name": "setApprovalForAll",
      "outputs": [],
      "stateMutability": "nonpayable",
      "type": "function"
    },
    {
      "inputs": [
        {
          "internalType": "string",
          "name": "_newBaseURI",
          "type": "string"
        }
      ],
      "name": "setBaseURI",
      "outputs": [],
      "stateMutability": "nonpayable",
      "type": "function"
    },
    {
      "inputs": [
        {
          "internalType": "bytes4",
          "name": "interfaceId",
          "type": "bytes4"
        }
      ],
      "name": "supportsInterface",
      "outputs": [
        {
          "internalType": "bool",
          "name": "",
          "type": "bool"
        }
      ],
      "stateMutability": "view",
      "type": "function"
    },
    {
      "inputs": [],
      "name": "symbol",
      "outputs": [
        {
          "internalType": "string",
          "name": "",
          "type": "string"
        }
      ],
      "stateMutability": "view",
      "type": "function"
    },
    {
      "inputs": [],
      "name": "tokenId",
      "outputs": [
        {
          "internalType": "uint256",
          "name": "",
          "type": "uint256"
        }
      ],
      "stateMutability": "view",
      "type": "function"
    },
    {
      "inputs": [
        {
          "internalType": "uint256",
          "name": "_tokenId",
          "type": "uint256"
        }
      ],
      "name": "tokenURI",
      "outputs": [
        {
          "internalType": "string",
          "name": "",
          "type": "string"
        }
      ],
      "stateMutability": "view",
      "type": "function"
    },
    {
      "inputs": [
        {
          "internalType": "address",
          "name": "from",
          "type": "address"
        },
        {
          "internalType": "address",
          "name": "to",
          "type": "address"
        },
        {
          "internalType": "uint256",
          "name": "tokenId",
          "type": "uint256"
        }
      ],
      "name": "transferFrom",
      "outputs": [],
      "stateMutability": "nonpayable",
      "type": "function"
    },
    {
      "inputs": [
        {
          "internalType": "address",
          "name": "newOwner",
          "type": "address"
        }
      ],
      "name": "transferOwnership",
      "outputs": [],
      "stateMutability": "nonpayable",
      "type": "function"
    },
    {
      "inputs": [],
      "name": "trustedForwarder",
      "outputs": [
        {
          "internalType": "address",
          "name": "",
          "type": "address"
        }
      ],
      "stateMutability": "view",
      "type": "function"
    },
    {
      "inputs": [],
      "name": "versionRecipient",
      "outputs": [
        {
          "internalType": "string",
          "name": "",
          "type": "string"
        }
      ],
      "stateMutability": "view",
      "type": "function"
    },
    {
      "inputs": [
        {
          "internalType": "address",
          "name": "",
          "type": "address"
        }
      ],
      "name": "whitelistMap",
      "outputs": [
        {
          "internalType": "bool",
          "name": "",
          "type": "bool"
        }
      ],
      "stateMutability": "view",
      "type": "function"
    }
  ],
  "bytecode": "0x60806040526040518060400160405280600581526020017f312e302e30000000000000000000000000000000000000000000000000000000815250600890805190602001906200005192919062000395565b50610bb8600a553480156200006557600080fd5b5060405162003c9438038062003c9483398181016040528101906200008b919062000570565b84848160009080519060200190620000a592919062000395565b508060019080519060200190620000be92919062000395565b505050620000e1620000d5620001d360201b60201c565b620001ef60201b60201c565b60005b83518110156200019d576001600960008684815181106200012e577f4e487b7100000000000000000000000000000000000000000000000000000000600052603260045260246000fd5b602002602001015173ffffffffffffffffffffffffffffffffffffffff1673ffffffffffffffffffffffffffffffffffffffff16815260200190815260200160002060006101000a81548160ff02191690831515021790555080806200019490620007c4565b915050620000e4565b5081600c9080519060200190620001b692919062000395565b50620001c881620002b560201b60201c565b5050505050620008ca565b6000620001ea620002f960201b620011b31760201c565b905090565b6000600660009054906101000a900473ffffffffffffffffffffffffffffffffffffffff16905081600660006101000a81548173ffffffffffffffffffffffffffffffffffffffff021916908373ffffffffffffffffffffffffffffffffffffffff1602179055508173ffffffffffffffffffffffffffffffffffffffff168173ffffffffffffffffffffffffffffffffffffffff167f8be0079c531659141344cd1fd0a4f28419497f9722a3daafe3b4186f6b6457e060405160405180910390a35050565b80600760006101000a81548173ffffffffffffffffffffffffffffffffffffffff021916908373ffffffffffffffffffffffffffffffffffffffff16021790555050565b600060146000369050101580156200031e57506200031d336200033b60201b60201c565b5b156200033457601436033560601c905062000338565b3390505b90565b6000600760009054906101000a900473ffffffffffffffffffffffffffffffffffffffff1673ffffffffffffffffffffffffffffffffffffffff168273ffffffffffffffffffffffffffffffffffffffff16149050919050565b828054620003a39062000758565b90600052602060002090601f016020900481019282620003c7576000855562000413565b82601f10620003e257805160ff191683800117855562000413565b8280016001018555821562000413579182015b8281111562000412578251825591602001919060010190620003f5565b5b50905062000422919062000426565b5090565b5b808211156200044157600081600090555060010162000427565b5090565b60006200045c62000456846200067f565b62000656565b905080838252602082019050828560208602820111156200047c57600080fd5b60005b85811015620004b05781620004958882620004ff565b8452602084019350602083019250506001810190506200047f565b5050509392505050565b6000620004d1620004cb84620006ae565b62000656565b905082815260208101848484011115620004ea57600080fd5b620004f784828562000722565b509392505050565b6000815190506200051081620008b0565b92915050565b600082601f8301126200052857600080fd5b81516200053a84826020860162000445565b91505092915050565b600082601f8301126200055557600080fd5b815162000567848260208601620004ba565b91505092915050565b600080600080600060a086880312156200058957600080fd5b600086015167ffffffffffffffff811115620005a457600080fd5b620005b28882890162000543565b955050602086015167ffffffffffffffff811115620005d057600080fd5b620005de8882890162000543565b945050604086015167ffffffffffffffff811115620005fc57600080fd5b6200060a8882890162000516565b935050606086015167ffffffffffffffff8111156200062857600080fd5b620006368882890162000543565b92505060806200064988828901620004ff565b9150509295509295909350565b60006200066262000675565b90506200067082826200078e565b919050565b6000604051905090565b600067ffffffffffffffff8211156200069d576200069c62000870565b5b602082029050602081019050919050565b600067ffffffffffffffff821115620006cc57620006cb62000870565b5b620006d7826200089f565b9050602081019050919050565b6000620006f182620006f8565b9050919050565b600073ffffffffffffffffffffffffffffffffffffffff82169050919050565b6000819050919050565b60005b838110156200074257808201518184015260208101905062000725565b8381111562000752576000848401525b50505050565b600060028204905060018216806200077157607f821691505b6020821081141562000788576200078762000841565b5b50919050565b62000799826200089f565b810181811067ffffffffffffffff82111715620007bb57620007ba62000870565b5b80604052505050565b6000620007d18262000718565b91507fffffffffffffffffffffffffffffffffffffffffffffffffffffffffffffffff82141562000807576200080662000812565b5b600182019050919050565b7f4e487b7100000000000000000000000000000000000000000000000000000000600052601160045260246000fd5b7f4e487b7100000000000000000000000000000000000000000000000000000000600052602260045260246000fd5b7f4e487b7100000000000000000000000000000000000000000000000000000000600052604160045260246000fd5b6000601f19601f8301169050919050565b620008bb81620006e4565b8114620008c757600080fd5b50565b6133ba80620008da6000396000f3fe60806040526004361061014b5760003560e01c80636352211e116100b6578063a22cb4651161006f578063a22cb46514610485578063b88d4fde146104ae578063c87b56dd146104d7578063d5abeb0114610514578063e985e9c51461053f578063f2fde38b1461057c5761014b565b80636352211e1461037357806370a08231146103b0578063715018a6146103ed5780637da0a877146104045780638da5cb5b1461042f57806395d89b411461045a5761014b565b806323b872dd1161010857806323b872dd1461025357806332531c3c1461027c57806342842e0e146102b9578063486ff0cd146102e257806355f804b31461030d578063572b6c05146103365761014b565b806301ffc9a71461015057806306fdde031461018d578063081812fc146101b8578063095ea7b3146101f55780631249c58b1461021e57806317d70f7c14610228575b600080fd5b34801561015c57600080fd5b5061017760048036038101906101729190612263565b6105a5565b604051610184919061275c565b60405180910390f35b34801561019957600080fd5b506101a2610687565b6040516101af9190612777565b60405180910390f35b3480156101c457600080fd5b506101df60048036038101906101da91906122f6565b610719565b6040516101ec91906126f5565b60405180910390f35b34801561020157600080fd5b5061021c60048036038101906102179190612227565b61079e565b005b6102266108b6565b005b34801561023457600080fd5b5061023d610a0e565b60405161024a91906129f9565b60405180910390f35b34801561025f57600080fd5b5061027a60048036038101906102759190612121565b610a14565b005b34801561028857600080fd5b506102a3600480360381019061029e91906120bc565b610a74565b6040516102b0919061275c565b60405180910390f35b3480156102c557600080fd5b506102e060048036038101906102db9190612121565b610a94565b005b3480156102ee57600080fd5b506102f7610ab4565b6040516103049190612777565b60405180910390f35b34801561031957600080fd5b50610334600480360381019061032f91906122b5565b610b42565b005b34801561034257600080fd5b5061035d600480360381019061035891906120bc565b610bd8565b60405161036a919061275c565b60405180910390f35b34801561037f57600080fd5b5061039a600480360381019061039591906122f6565b610c32565b6040516103a791906126f5565b60405180910390f35b3480156103bc57600080fd5b506103d760048036038101906103d291906120bc565b610ce4565b6040516103e491906129f9565b60405180910390f35b3480156103f957600080fd5b50610402610d9c565b005b34801561041057600080fd5b50610419610e24565b60405161042691906126f5565b60405180910390f35b34801561043b57600080fd5b50610444610e4e565b60405161045191906126f5565b60405180910390f35b34801561046657600080fd5b5061046f610e78565b60405161047c9190612777565b60405180910390f35b34801561049157600080fd5b506104ac60048036038101906104a791906121eb565b610f0a565b005b3480156104ba57600080fd5b506104d560048036038101906104d09190612170565b610f20565b005b3480156104e357600080fd5b506104fe60048036038101906104f991906122f6565b610f82565b60405161050b9190612777565b60405180910390f35b34801561052057600080fd5b50610529611021565b60405161053691906129f9565b60405180910390f35b34801561054b57600080fd5b50610566600480360381019061056191906120e5565b611027565b604051610573919061275c565b60405180910390f35b34801561058857600080fd5b506105a3600480360381019061059e91906120bc565b6110bb565b005b60007f80ac58cd000000000000000000000000000000000000000000000000000000007bffffffffffffffffffffffffffffffffffffffffffffffffffffffff1916827bffffffffffffffffffffffffffffffffffffffffffffffffffffffff1916148061067057507f5b5e139f000000000000000000000000000000000000000000000000000000007bffffffffffffffffffffffffffffffffffffffffffffffffffffffff1916827bffffffffffffffffffffffffffffffffffffffffffffffffffffffff1916145b80610680575061067f826111ea565b5b9050919050565b60606000805461069690612ca9565b80601f01602080910402602001604051908101604052809291908181526020018280546106c290612ca9565b801561070f5780601f106106e45761010080835404028352916020019161070f565b820191906000526020600020905b8154815290600101906020018083116106f257829003601f168201915b5050505050905090565b600061072482611254565b610763576040517f08c379a000000000000000000000000000000000000000000000000000000000815260040161075a90612959565b60405180910390fd5b6004600083815260200190815260200160002060009054906101000a900473ffffffffffffffffffffffffffffffffffffffff169050919050565b60006107a982610c32565b90508073ffffffffffffffffffffffffffffffffffffffff168373ffffffffffffffffffffffffffffffffffffffff16141561081a576040517f08c379a0000000000000000000000000000000000000000000000000000000008152600401610811906129b9565b60405180910390fd5b8073ffffffffffffffffffffffffffffffffffffffff166108396112c0565b73ffffffffffffffffffffffffffffffffffffffff1614806108685750610867816108626112c0565b611027565b5b6108a7576040517f08c379a000000000000000000000000000000000000000000000000000000000815260040161089e90612899565b60405180910390fd5b6108b183836112cf565b505050565b600960006108c26112c0565b73ffffffffffffffffffffffffffffffffffffffff1673ffffffffffffffffffffffffffffffffffffffff16815260200190815260200160002060009054906101000a900460ff16610949576040517f08c379a000000000000000000000000000000000000000000000000000000000815260040161094090612799565b60405180910390fd5b600a54600b541061098f576040517f08c379a0000000000000000000000000000000000000000000000000000000008152600401610986906128f9565b60405180910390fd5b60006109a161099c6112c0565b610ce4565b146109e1576040517f08c379a00000000000000000000000000000000000000000000000000000000081526004016109d890612919565b60405180910390fd5b6109f46109ec6112c0565b600b54611388565b600b6000815480929190610a0790612d0c565b9190505550565b600b5481565b610a25610a1f6112c0565b826113a6565b610a64576040517f08c379a0000000000000000000000000000000000000000000000000000000008152600401610a5b906129d9565b60405180910390fd5b610a6f838383611484565b505050565b60096020528060005260406000206000915054906101000a900460ff1681565b610aaf83838360405180602001604052806000815250610f20565b505050565b60088054610ac190612ca9565b80601f0160208091040260200160405190810160405280929190818152602001828054610aed90612ca9565b8015610b3a5780601f10610b0f57610100808354040283529160200191610b3a565b820191906000526020600020905b815481529060010190602001808311610b1d57829003601f168201915b505050505081565b610b4a6112c0565b73ffffffffffffffffffffffffffffffffffffffff16610b68610e4e565b73ffffffffffffffffffffffffffffffffffffffff1614610bbe576040517f08c379a0000000000000000000000000000000000000000000000000000000008152600401610bb590612979565b60405180910390fd5b80600c9080519060200190610bd4929190611ee0565b5050565b6000600760009054906101000a900473ffffffffffffffffffffffffffffffffffffffff1673ffffffffffffffffffffffffffffffffffffffff168273ffffffffffffffffffffffffffffffffffffffff16149050919050565b6000806002600084815260200190815260200160002060009054906101000a900473ffffffffffffffffffffffffffffffffffffffff169050600073ffffffffffffffffffffffffffffffffffffffff168173ffffffffffffffffffffffffffffffffffffffff161415610cdb576040517f08c379a0000000000000000000000000000000000000000000000000000000008152600401610cd2906128d9565b60405180910390fd5b80915050919050565b60008073ffffffffffffffffffffffffffffffffffffffff168273ffffffffffffffffffffffffffffffffffffffff161415610d55576040517f08c379a0000000000000000000000000000000000000000000000000000000008152600401610d4c906128b9565b60405180910390fd5b600360008373ffffffffffffffffffffffffffffffffffffffff1673ffffffffffffffffffffffffffffffffffffffff168152602001908152602001600020549050919050565b610da46112c0565b73ffffffffffffffffffffffffffffffffffffffff16610dc2610e4e565b73ffffffffffffffffffffffffffffffffffffffff1614610e18576040517f08c379a0000000000000000000000000000000000000000000000000000000008152600401610e0f90612979565b60405180910390fd5b610e2260006116eb565b565b6000600760009054906101000a900473ffffffffffffffffffffffffffffffffffffffff16905090565b6000600660009054906101000a900473ffffffffffffffffffffffffffffffffffffffff16905090565b606060018054610e8790612ca9565b80601f0160208091040260200160405190810160405280929190818152602001828054610eb390612ca9565b8015610f005780601f10610ed557610100808354040283529160200191610f00565b820191906000526020600020905b815481529060010190602001808311610ee357829003601f168201915b5050505050905090565b610f1c610f156112c0565b83836117b1565b5050565b610f31610f2b6112c0565b836113a6565b610f70576040517f08c379a0000000000000000000000000000000000000000000000000000000008152600401610f67906129d9565b60405180910390fd5b610f7c8484848461191e565b50505050565b6060610f8d82611254565b610fcc576040517f08c379a0000000000000000000000000000000000000000000000000000000008152600401610fc390612999565b60405180910390fd5b6000610fd661197a565b90506000815111610ff65760405180602001604052806000815250611019565b80836040516020016110099291906126c2565b6040516020818303038152906040525b915050919050565b600a5481565b6000600560008473ffffffffffffffffffffffffffffffffffffffff1673ffffffffffffffffffffffffffffffffffffffff16815260200190815260200160002060008373ffffffffffffffffffffffffffffffffffffffff1673ffffffffffffffffffffffffffffffffffffffff16815260200190815260200160002060009054906101000a900460ff16905092915050565b6110c36112c0565b73ffffffffffffffffffffffffffffffffffffffff166110e1610e4e565b73ffffffffffffffffffffffffffffffffffffffff1614611137576040517f08c379a000000000000000000000000000000000000000000000000000000000815260040161112e90612979565b60405180910390fd5b600073ffffffffffffffffffffffffffffffffffffffff168173ffffffffffffffffffffffffffffffffffffffff1614156111a7576040517f08c379a000000000000000000000000000000000000000000000000000000000815260040161119e906127d9565b60405180910390fd5b6111b0816116eb565b50565b600060146000369050101580156111cf57506111ce33610bd8565b5b156111e357601436033560601c90506111e7565b3390505b90565b60007f01ffc9a7000000000000000000000000000000000000000000000000000000007bffffffffffffffffffffffffffffffffffffffffffffffffffffffff1916827bffffffffffffffffffffffffffffffffffffffffffffffffffffffff1916149050919050565b60008073ffffffffffffffffffffffffffffffffffffffff166002600084815260200190815260200160002060009054906101000a900473ffffffffffffffffffffffffffffffffffffffff1673ffffffffffffffffffffffffffffffffffffffff1614159050919050565b60006112ca6111b3565b905090565b816004600083815260200190815260200160002060006101000a81548173ffffffffffffffffffffffffffffffffffffffff021916908373ffffffffffffffffffffffffffffffffffffffff160217905550808273ffffffffffffffffffffffffffffffffffffffff1661134283610c32565b73ffffffffffffffffffffffffffffffffffffffff167f8c5be1e5ebec7d5bd14f71427d1e84f3dd0314c0f7b2291e5b200ac8c7c3b92560405160405180910390a45050565b6113a2828260405180602001604052806000815250611a0c565b5050565b60006113b182611254565b6113f0576040517f08c379a00000000000000000000000000000000000000000000000000000000081526004016113e790612879565b60405180910390fd5b60006113fb83610c32565b90508073ffffffffffffffffffffffffffffffffffffffff168473ffffffffffffffffffffffffffffffffffffffff16148061143d575061143c8185611027565b5b8061147b57508373ffffffffffffffffffffffffffffffffffffffff1661146384610719565b73ffffffffffffffffffffffffffffffffffffffff16145b91505092915050565b8273ffffffffffffffffffffffffffffffffffffffff166114a482610c32565b73ffffffffffffffffffffffffffffffffffffffff16146114fa576040517f08c379a00000000000000000000000000000000000000000000000000000000081526004016114f1906127f9565b60405180910390fd5b600073ffffffffffffffffffffffffffffffffffffffff168273ffffffffffffffffffffffffffffffffffffffff16141561156a576040517f08c379a000000000000000000000000000000000000000000000000000000000815260040161156190612839565b60405180910390fd5b611575838383611a67565b6115806000826112cf565b6001600360008573ffffffffffffffffffffffffffffffffffffffff1673ffffffffffffffffffffffffffffffffffffffff16815260200190815260200160002060008282546115d09190612bbf565b925050819055506001600360008473ffffffffffffffffffffffffffffffffffffffff1673ffffffffffffffffffffffffffffffffffffffff16815260200190815260200160002060008282546116279190612ade565b92505081905550816002600083815260200190815260200160002060006101000a81548173ffffffffffffffffffffffffffffffffffffffff021916908373ffffffffffffffffffffffffffffffffffffffff160217905550808273ffffffffffffffffffffffffffffffffffffffff168473ffffffffffffffffffffffffffffffffffffffff167fddf252ad1be2c89b69c2b068fc378daa952ba7f163c4a11628f55a4df523b3ef60405160405180910390a46116e6838383611b42565b505050565b6000600660009054906101000a900473ffffffffffffffffffffffffffffffffffffffff16905081600660006101000a81548173ffffffffffffffffffffffffffffffffffffffff021916908373ffffffffffffffffffffffffffffffffffffffff1602179055508173ffffffffffffffffffffffffffffffffffffffff168173ffffffffffffffffffffffffffffffffffffffff167f8be0079c531659141344cd1fd0a4f28419497f9722a3daafe3b4186f6b6457e060405160405180910390a35050565b8173ffffffffffffffffffffffffffffffffffffffff168373ffffffffffffffffffffffffffffffffffffffff161415611820576040517f08c379a000000000000000000000000000000000000000000000000000000000815260040161181790612859565b60405180910390fd5b80600560008573ffffffffffffffffffffffffffffffffffffffff1673ffffffffffffffffffffffffffffffffffffffff16815260200190815260200160002060008473ffffffffffffffffffffffffffffffffffffffff1673ffffffffffffffffffffffffffffffffffffffff16815260200190815260200160002060006101000a81548160ff0219169083151502179055508173ffffffffffffffffffffffffffffffffffffffff168373ffffffffffffffffffffffffffffffffffffffff167f17307eab39ab6107e8899845ad3d59bd9653f200f220920489ca2b5937696c3183604051611911919061275c565b60405180910390a3505050565b611929848484611484565b61193584848484611b47565b611974576040517f08c379a000000000000000000000000000000000000000000000000000000000815260040161196b906127b9565b60405180910390fd5b50505050565b6060600c805461198990612ca9565b80601f01602080910402602001604051908101604052809291908181526020018280546119b590612ca9565b8015611a025780601f106119d757610100808354040283529160200191611a02565b820191906000526020600020905b8154815290600101906020018083116119e557829003601f168201915b5050505050905090565b611a168383611cde565b611a236000848484611b47565b611a62576040517f08c379a0000000000000000000000000000000000000000000000000000000008152600401611a59906127b9565b60405180910390fd5b505050565b611a72838383611eb8565b60003490508273ffffffffffffffffffffffffffffffffffffffff166108fc606483605f611aa09190612b65565b611aaa9190612b34565b9081150290604051600060405180830381858888f19350505050158015611ad5573d6000803e3d6000fd5b50611ade610e4e565b73ffffffffffffffffffffffffffffffffffffffff166108fc6064836005611b069190612b65565b611b109190612b34565b9081150290604051600060405180830381858888f19350505050158015611b3b573d6000803e3d6000fd5b5050505050565b505050565b6000611b688473ffffffffffffffffffffffffffffffffffffffff16611ebd565b15611cd1578373ffffffffffffffffffffffffffffffffffffffff1663150b7a02611b916112c0565b8786866040518563ffffffff1660e01b8152600401611bb39493929190612710565b602060405180830381600087803b158015611bcd57600080fd5b505af1925050508015611bfe57506040513d601f19601f82011682018060405250810190611bfb919061228c565b60015b611c81573d8060008114611c2e576040519150601f19603f3d011682016040523d82523d6000602084013e611c33565b606091505b50600081511415611c79576040517f08c379a0000000000000000000000000000000000000000000000000000000008152600401611c70906127b9565b60405180910390fd5b805181602001fd5b63150b7a0260e01b7bffffffffffffffffffffffffffffffffffffffffffffffffffffffff1916817bffffffffffffffffffffffffffffffffffffffffffffffffffffffff191614915050611cd6565b600190505b949350505050565b600073ffffffffffffffffffffffffffffffffffffffff168273ffffffffffffffffffffffffffffffffffffffff161415611d4e576040517f08c379a0000000000000000000000000000000000000000000000000000000008152600401611d4590612939565b60405180910390fd5b611d5781611254565b15611d97576040517f08c379a0000000000000000000000000000000000000000000000000000000008152600401611d8e90612819565b60405180910390fd5b611da360008383611a67565b6001600360008473ffffffffffffffffffffffffffffffffffffffff1673ffffffffffffffffffffffffffffffffffffffff1681526020019081526020016000206000828254611df39190612ade565b92505081905550816002600083815260200190815260200160002060006101000a81548173ffffffffffffffffffffffffffffffffffffffff021916908373ffffffffffffffffffffffffffffffffffffffff160217905550808273ffffffffffffffffffffffffffffffffffffffff16600073ffffffffffffffffffffffffffffffffffffffff167fddf252ad1be2c89b69c2b068fc378daa952ba7f163c4a11628f55a4df523b3ef60405160405180910390a4611eb460008383611b42565b5050565b505050565b6000808273ffffffffffffffffffffffffffffffffffffffff163b119050919050565b828054611eec90612ca9565b90600052602060002090601f016020900481019282611f0e5760008555611f55565b82601f10611f2757805160ff1916838001178555611f55565b82800160010185558215611f55579182015b82811115611f54578251825591602001919060010190611f39565b5b509050611f629190611f66565b5090565b5b80821115611f7f576000816000905550600101611f67565b5090565b6000611f96611f9184612a39565b612a14565b905082815260208101848484011115611fae57600080fd5b611fb9848285612c67565b509392505050565b6000611fd4611fcf84612a6a565b612a14565b905082815260208101848484011115611fec57600080fd5b611ff7848285612c67565b509392505050565b60008135905061200e81613328565b92915050565b6000813590506120238161333f565b92915050565b60008135905061203881613356565b92915050565b60008151905061204d81613356565b92915050565b600082601f83011261206457600080fd5b8135612074848260208601611f83565b91505092915050565b600082601f83011261208e57600080fd5b813561209e848260208601611fc1565b91505092915050565b6000813590506120b68161336d565b92915050565b6000602082840312156120ce57600080fd5b60006120dc84828501611fff565b91505092915050565b600080604083850312156120f857600080fd5b600061210685828601611fff565b925050602061211785828601611fff565b9150509250929050565b60008060006060848603121561213657600080fd5b600061214486828701611fff565b935050602061215586828701611fff565b9250506040612166868287016120a7565b9150509250925092565b6000806000806080858703121561218657600080fd5b600061219487828801611fff565b94505060206121a587828801611fff565b93505060406121b6878288016120a7565b925050606085013567ffffffffffffffff8111156121d357600080fd5b6121df87828801612053565b91505092959194509250565b600080604083850312156121fe57600080fd5b600061220c85828601611fff565b925050602061221d85828601612014565b9150509250929050565b6000806040838503121561223a57600080fd5b600061224885828601611fff565b9250506020612259858286016120a7565b9150509250929050565b60006020828403121561227557600080fd5b600061228384828501612029565b91505092915050565b60006020828403121561229e57600080fd5b60006122ac8482850161203e565b91505092915050565b6000602082840312156122c757600080fd5b600082013567ffffffffffffffff8111156122e157600080fd5b6122ed8482850161207d565b91505092915050565b60006020828403121561230857600080fd5b6000612316848285016120a7565b91505092915050565b61232881612bf3565b82525050565b61233781612c05565b82525050565b600061234882612a9b565b6123528185612ab1565b9350612362818560208601612c76565b61236b81612e1b565b840191505092915050565b600061238182612aa6565b61238b8185612ac2565b935061239b818560208601612c76565b6123a481612e1b565b840191505092915050565b60006123ba82612aa6565b6123c48185612ad3565b93506123d4818560208601612c76565b80840191505092915050565b60006123ed601083612ac2565b91506123f882612e2c565b602082019050919050565b6000612410603283612ac2565b915061241b82612e55565b604082019050919050565b6000612433602683612ac2565b915061243e82612ea4565b604082019050919050565b6000612456602583612ac2565b915061246182612ef3565b604082019050919050565b6000612479601c83612ac2565b915061248482612f42565b602082019050919050565b600061249c602483612ac2565b91506124a782612f6b565b604082019050919050565b60006124bf601983612ac2565b91506124ca82612fba565b602082019050919050565b60006124e2602c83612ac2565b91506124ed82612fe3565b604082019050919050565b6000612505603883612ac2565b915061251082613032565b604082019050919050565b6000612528602a83612ac2565b915061253382613081565b604082019050919050565b600061254b602983612ac2565b9150612556826130d0565b604082019050919050565b600061256e601483612ac2565b91506125798261311f565b602082019050919050565b6000612591600e83612ac2565b915061259c82613148565b602082019050919050565b60006125b4602083612ac2565b91506125bf82613171565b602082019050919050565b60006125d7602c83612ac2565b91506125e28261319a565b604082019050919050565b60006125fa600583612ad3565b9150612605826131e9565b600582019050919050565b600061261d602083612ac2565b915061262882613212565b602082019050919050565b6000612640602f83612ac2565b915061264b8261323b565b604082019050919050565b6000612663602183612ac2565b915061266e8261328a565b604082019050919050565b6000612686603183612ac2565b9150612691826132d9565b604082019050919050565b6126a581612c5d565b82525050565b6126bc6126b782612c5d565b612d55565b82525050565b60006126ce82856123af565b91506126da82846126ab565b6020820191506126e9826125ed565b91508190509392505050565b600060208201905061270a600083018461231f565b92915050565b6000608082019050612725600083018761231f565b612732602083018661231f565b61273f604083018561269c565b8181036060830152612751818461233d565b905095945050505050565b6000602082019050612771600083018461232e565b92915050565b600060208201905081810360008301526127918184612376565b905092915050565b600060208201905081810360008301526127b2816123e0565b9050919050565b600060208201905081810360008301526127d281612403565b9050919050565b600060208201905081810360008301526127f281612426565b9050919050565b6000602082019050818103600083015261281281612449565b9050919050565b600060208201905081810360008301526128328161246c565b9050919050565b600060208201905081810360008301526128528161248f565b9050919050565b60006020820190508181036000830152612872816124b2565b9050919050565b60006020820190508181036000830152612892816124d5565b9050919050565b600060208201905081810360008301526128b2816124f8565b9050919050565b600060208201905081810360008301526128d28161251b565b9050919050565b600060208201905081810360008301526128f28161253e565b9050919050565b6000602082019050818103600083015261291281612561565b9050919050565b6000602082019050818103600083015261293281612584565b9050919050565b60006020820190508181036000830152612952816125a7565b9050919050565b60006020820190508181036000830152612972816125ca565b9050919050565b6000602082019050818103600083015261299281612610565b9050919050565b600060208201905081810360008301526129b281612633565b9050919050565b600060208201905081810360008301526129d281612656565b9050919050565b600060208201905081810360008301526129f281612679565b9050919050565b6000602082019050612a0e600083018461269c565b92915050565b6000612a1e612a2f565b9050612a2a8282612cdb565b919050565b6000604051905090565b600067ffffffffffffffff821115612a5457612a53612dec565b5b612a5d82612e1b565b9050602081019050919050565b600067ffffffffffffffff821115612a8557612a84612dec565b5b612a8e82612e1b565b9050602081019050919050565b600081519050919050565b600081519050919050565b600082825260208201905092915050565b600082825260208201905092915050565b600081905092915050565b6000612ae982612c5d565b9150612af483612c5d565b9250827fffffffffffffffffffffffffffffffffffffffffffffffffffffffffffffffff03821115612b2957612b28612d5f565b5b828201905092915050565b6000612b3f82612c5d565b9150612b4a83612c5d565b925082612b5a57612b59612d8e565b5b828204905092915050565b6000612b7082612c5d565b9150612b7b83612c5d565b9250817fffffffffffffffffffffffffffffffffffffffffffffffffffffffffffffffff0483118215151615612bb457612bb3612d5f565b5b828202905092915050565b6000612bca82612c5d565b9150612bd583612c5d565b925082821015612be857612be7612d5f565b5b828203905092915050565b6000612bfe82612c3d565b9050919050565b60008115159050919050565b60007fffffffff0000000000000000000000000000000000000000000000000000000082169050919050565b600073ffffffffffffffffffffffffffffffffffffffff82169050919050565b6000819050919050565b82818337600083830152505050565b60005b83811015612c94578082015181840152602081019050612c79565b83811115612ca3576000848401525b50505050565b60006002820490506001821680612cc157607f821691505b60208210811415612cd557612cd4612dbd565b5b50919050565b612ce482612e1b565b810181811067ffffffffffffffff82111715612d0357612d02612dec565b5b80604052505050565b6000612d1782612c5d565b91507fffffffffffffffffffffffffffffffffffffffffffffffffffffffffffffffff821415612d4a57612d49612d5f565b5b600182019050919050565b6000819050919050565b7f4e487b7100000000000000000000000000000000000000000000000000000000600052601160045260246000fd5b7f4e487b7100000000000000000000000000000000000000000000000000000000600052601260045260246000fd5b7f4e487b7100000000000000000000000000000000000000000000000000000000600052602260045260246000fd5b7f4e487b7100000000000000000000000000000000000000000000000000000000600052604160045260246000fd5b6000601f19601f8301169050919050565b7f4e6f7420696e2057686974656c69737400000000000000000000000000000000600082015250565b7f4552433732313a207472616e7366657220746f206e6f6e20455243373231526560008201527f63656976657220696d706c656d656e7465720000000000000000000000000000602082015250565b7f4f776e61626c653a206e6577206f776e657220697320746865207a65726f206160008201527f6464726573730000000000000000000000000000000000000000000000000000602082015250565b7f4552433732313a207472616e736665722066726f6d20696e636f72726563742060008201527f6f776e6572000000000000000000000000000000000000000000000000000000602082015250565b7f4552433732313a20746f6b656e20616c7265616479206d696e74656400000000600082015250565b7f4552433732313a207472616e7366657220746f20746865207a65726f2061646460008201527f7265737300000000000000000000000000000000000000000000000000000000602082015250565b7f4552433732313a20617070726f766520746f2063616c6c657200000000000000600082015250565b7f4552433732313a206f70657261746f7220717565727920666f72206e6f6e657860008201527f697374656e7420746f6b656e0000000000000000000000000000000000000000602082015250565b7f4552433732313a20617070726f76652063616c6c6572206973206e6f74206f7760008201527f6e6572206e6f7220617070726f76656420666f7220616c6c0000000000000000602082015250565b7f4552433732313a2062616c616e636520717565727920666f7220746865207a6560008201527f726f206164647265737300000000000000000000000000000000000000000000602082015250565b7f4552433732313a206f776e657220717565727920666f72206e6f6e657869737460008201527f656e7420746f6b656e0000000000000000000000000000000000000000000000602082015250565b7f436f6c6c656374696f6e20536f6c64206f757421000000000000000000000000600082015250565b7f416c7265616479204d696e746564000000000000000000000000000000000000600082015250565b7f4552433732313a206d696e7420746f20746865207a65726f2061646472657373600082015250565b7f4552433732313a20617070726f76656420717565727920666f72206e6f6e657860008201527f697374656e7420746f6b656e0000000000000000000000000000000000000000602082015250565b7f2e6a736f6e000000000000000000000000000000000000000000000000000000600082015250565b7f4f776e61626c653a2063616c6c6572206973206e6f7420746865206f776e6572600082015250565b7f4552433732314d657461646174613a2055524920717565727920666f72206e6f60008201527f6e6578697374656e7420746f6b656e0000000000000000000000000000000000602082015250565b7f4552433732313a20617070726f76616c20746f2063757272656e74206f776e6560008201527f7200000000000000000000000000000000000000000000000000000000000000602082015250565b7f4552433732313a207472616e736665722063616c6c6572206973206e6f74206f60008201527f776e6572206e6f7220617070726f766564000000000000000000000000000000602082015250565b61333181612bf3565b811461333c57600080fd5b50565b61334881612c05565b811461335357600080fd5b50565b61335f81612c11565b811461336a57600080fd5b50565b61337681612c5d565b811461338157600080fd5b5056fea26469706673582212205a099e628d78a47c5091dfa1eedfb6e74d41f516d259c3aee2986d28311aa49664736f6c63430008040033",
  "linkReferences": {},
  "deployedLinkReferences": {}
}