{
  "_format": "hh-sol-artifact-1",
  "contractName": "WhitelistMint",
  "sourceName": "contracts/WhiteListMint.sol",
  "abi": [
    {
      "inputs": [
        {
          "internalType": "string",
          "name": "tokenName",
          "type": "string"
        },
        {
          "internalType": "string",
          "name": "tokenSymbol",
          "type": "string"
        },
        {
          "internalType": "address[]",
          "name": "whitelistArray",
          "type": "address[]"
        },
        {
          "internalType": "string",
          "name": "_URI",
          "type": "string"
        },
        {
          "internalType": "address",
          "name": "forwarder",
          "type": "address"
        }
      ],
      "stateMutability": "nonpayable",
      "type": "constructor"
    },
    {
      "anonymous": false,
      "inputs": [
        {
          "indexed": true,
          "internalType": "address",
          "name": "owner",
          "type": "address"
        },
        {
          "indexed": true,
          "internalType": "address",
          "name": "approved",
          "type": "address"
        },
        {
          "indexed": true,
          "internalType": "uint256",
          "name": "tokenId",
          "type": "uint256"
        }
      ],
      "name": "Approval",
      "type": "event"
    },
    {
      "anonymous": false,
      "inputs": [
        {
          "indexed": true,
          "internalType": "address",
          "name": "owner",
          "type": "address"
        },
        {
          "indexed": true,
          "internalType": "address",
          "name": "operator",
          "type": "address"
        },
        {
          "indexed": false,
          "internalType": "bool",
          "name": "approved",
          "type": "bool"
        }
      ],
      "name": "ApprovalForAll",
      "type": "event"
    },
    {
      "anonymous": false,
      "inputs": [
        {
          "indexed": true,
          "internalType": "address",
          "name": "previousOwner",
          "type": "address"
        },
        {
          "indexed": true,
          "internalType": "address",
          "name": "newOwner",
          "type": "address"
        }
      ],
      "name": "OwnershipTransferred",
      "type": "event"
    },
    {
      "anonymous": false,
      "inputs": [
        {
          "indexed": true,
          "internalType": "address",
          "name": "from",
          "type": "address"
        },
        {
          "indexed": true,
          "internalType": "address",
          "name": "to",
          "type": "address"
        },
        {
          "indexed": true,
          "internalType": "uint256",
          "name": "tokenId",
          "type": "uint256"
        }
      ],
      "name": "Transfer",
      "type": "event"
    },
    {
      "inputs": [
        {
          "internalType": "address",
          "name": "to",
          "type": "address"
        },
        {
          "internalType": "uint256",
          "name": "tokenId",
          "type": "uint256"
        }
      ],
      "name": "approve",
      "outputs": [],
      "stateMutability": "nonpayable",
      "type": "function"
    },
    {
      "inputs": [
        {
          "internalType": "address",
          "name": "owner",
          "type": "address"
        }
      ],
      "name": "balanceOf",
      "outputs": [
        {
          "internalType": "uint256",
          "name": "",
          "type": "uint256"
        }
      ],
      "stateMutability": "view",
      "type": "function"
    },
    {
      "inputs": [
        {
          "internalType": "uint256",
          "name": "tokenId",
          "type": "uint256"
        }
      ],
      "name": "getApproved",
      "outputs": [
        {
          "internalType": "address",
          "name": "",
          "type": "address"
        }
      ],
      "stateMutability": "view",
      "type": "function"
    },
    {
      "inputs": [
        {
          "internalType": "address",
          "name": "owner",
          "type": "address"
        },
        {
          "internalType": "address",
          "name": "operator",
          "type": "address"
        }
      ],
      "name": "isApprovedForAll",
      "outputs": [
        {
          "internalType": "bool",
          "name": "",
          "type": "bool"
        }
      ],
      "stateMutability": "view",
      "type": "function"
    },
    {
      "inputs": [
        {
          "internalType": "address",
          "name": "forwarder",
          "type": "address"
        }
      ],
      "name": "isTrustedForwarder",
      "outputs": [
        {
          "internalType": "bool",
          "name": "",
          "type": "bool"
        }
      ],
      "stateMutability": "view",
      "type": "function"
    },
    {
      "inputs": [],
      "name": "maxSupply",
      "outputs": [
        {
          "internalType": "uint256",
          "name": "",
          "type": "uint256"
        }
      ],
      "stateMutability": "view",
      "type": "function"
    },
    {
      "inputs": [],
      "name": "mint",
      "outputs": [],
      "stateMutability": "nonpayable",
      "type": "function"
    },
    {
      "inputs": [],
      "name": "name",
      "outputs": [
        {
          "internalType": "string",
          "name": "",
          "type": "string"
        }
      ],
      "stateMutability": "view",
      "type": "function"
    },
    {
      "inputs": [],
      "name": "owner",
      "outputs": [
        {
          "internalType": "address",
          "name": "",
          "type": "address"
        }
      ],
      "stateMutability": "view",
      "type": "function"
    },
    {
      "inputs": [
        {
          "internalType": "uint256",
          "name": "tokenId",
          "type": "uint256"
        }
      ],
      "name": "ownerOf",
      "outputs": [
        {
          "internalType": "address",
          "name": "",
          "type": "address"
        }
      ],
      "stateMutability": "view",
      "type": "function"
    },
    {
      "inputs": [],
      "name": "renounceOwnership",
      "outputs": [],
      "stateMutability": "nonpayable",
      "type": "function"
    },
    {
      "inputs": [
        {
          "internalType": "address",
          "name": "from",
          "type": "address"
        },
        {
          "internalType": "address",
          "name": "to",
          "type": "address"
        },
        {
          "internalType": "uint256",
          "name": "tokenId",
          "type": "uint256"
        }
      ],
      "name": "safeTransferFrom",
      "outputs": [],
      "stateMutability": "nonpayable",
      "type": "function"
    },
    {
      "inputs": [
        {
          "internalType": "address",
          "name": "from",
          "type": "address"
        },
        {
          "internalType": "address",
          "name": "to",
          "type": "address"
        },
        {
          "internalType": "uint256",
          "name": "tokenId",
          "type": "uint256"
        },
        {
          "internalType": "bytes",
          "name": "_data",
          "type": "bytes"
        }
      ],
      "name": "safeTransferFrom",
      "outputs": [],
      "stateMutability": "nonpayable",
      "type": "function"
    },
    {
      "inputs": [
        {
          "internalType": "address",
          "name": "operator",
          "type": "address"
        },
        {
          "internalType": "bool",
          "name": "approved",
          "type": "bool"
        }
      ],
      "name": "setApprovalForAll",
      "outputs": [],
      "stateMutability": "nonpayable",
      "type": "function"
    },
    {
      "inputs": [
        {
          "internalType": "string",
          "name": "_newBaseURI",
          "type": "string"
        }
      ],
      "name": "setBaseURI",
      "outputs": [],
      "stateMutability": "nonpayable",
      "type": "function"
    },
    {
      "inputs": [
        {
          "internalType": "bytes4",
          "name": "interfaceId",
          "type": "bytes4"
        }
      ],
      "name": "supportsInterface",
      "outputs": [
        {
          "internalType": "bool",
          "name": "",
          "type": "bool"
        }
      ],
      "stateMutability": "view",
      "type": "function"
    },
    {
      "inputs": [],
      "name": "symbol",
      "outputs": [
        {
          "internalType": "string",
          "name": "",
          "type": "string"
        }
      ],
      "stateMutability": "view",
      "type": "function"
    },
    {
      "inputs": [],
      "name": "tokenId",
      "outputs": [
        {
          "internalType": "uint256",
          "name": "",
          "type": "uint256"
        }
      ],
      "stateMutability": "view",
      "type": "function"
    },
    {
      "inputs": [
        {
          "internalType": "uint256",
          "name": "_tokenId",
          "type": "uint256"
        }
      ],
      "name": "tokenURI",
      "outputs": [
        {
          "internalType": "string",
          "name": "",
          "type": "string"
        }
      ],
      "stateMutability": "view",
      "type": "function"
    },
    {
      "inputs": [
        {
          "internalType": "address",
          "name": "from",
          "type": "address"
        },
        {
          "internalType": "address",
          "name": "to",
          "type": "address"
        },
        {
          "internalType": "uint256",
          "name": "tokenId",
          "type": "uint256"
        }
      ],
      "name": "transferFrom",
      "outputs": [],
      "stateMutability": "nonpayable",
      "type": "function"
    },
    {
      "inputs": [
        {
          "internalType": "address",
          "name": "newOwner",
          "type": "address"
        }
      ],
      "name": "transferOwnership",
      "outputs": [],
      "stateMutability": "nonpayable",
      "type": "function"
    },
    {
      "inputs": [],
      "name": "trustedForwarder",
      "outputs": [
        {
          "internalType": "address",
          "name": "",
          "type": "address"
        }
      ],
      "stateMutability": "view",
      "type": "function"
    },
    {
      "inputs": [],
      "name": "versionRecipient",
      "outputs": [
        {
          "internalType": "string",
          "name": "",
          "type": "string"
        }
      ],
      "stateMutability": "pure",
      "type": "function"
    },
    {
      "inputs": [
        {
          "internalType": "address",
          "name": "",
          "type": "address"
        }
      ],
      "name": "whitelistMap",
      "outputs": [
        {
          "internalType": "bool",
          "name": "",
          "type": "bool"
        }
      ],
      "stateMutability": "view",
      "type": "function"
    }
  ],
  "bytecode": "0x6080604052610bb86009553480156200001757600080fd5b5060405162003ad738038062003ad783398181016040528101906200003d919062000522565b848481600090805190602001906200005792919062000347565b5080600190805190602001906200007092919062000347565b50505062000093620000876200018560201b60201c565b620001a160201b60201c565b60005b83518110156200014f57600160086000868481518110620000e0577f4e487b7100000000000000000000000000000000000000000000000000000000600052603260045260246000fd5b602002602001015173ffffffffffffffffffffffffffffffffffffffff1673ffffffffffffffffffffffffffffffffffffffff16815260200190815260200160002060006101000a81548160ff0219169083151502179055508080620001469062000776565b91505062000096565b5081600b90805190602001906200016892919062000347565b506200017a816200026760201b60201c565b50505050506200087c565b60006200019c620002ab60201b620010441760201c565b905090565b6000600660009054906101000a900473ffffffffffffffffffffffffffffffffffffffff16905081600660006101000a81548173ffffffffffffffffffffffffffffffffffffffff021916908373ffffffffffffffffffffffffffffffffffffffff1602179055508173ffffffffffffffffffffffffffffffffffffffff168173ffffffffffffffffffffffffffffffffffffffff167f8be0079c531659141344cd1fd0a4f28419497f9722a3daafe3b4186f6b6457e060405160405180910390a35050565b80600760006101000a81548173ffffffffffffffffffffffffffffffffffffffff021916908373ffffffffffffffffffffffffffffffffffffffff16021790555050565b60006014600036905010158015620002d05750620002cf33620002ed60201b60201c565b5b15620002e657601436033560601c9050620002ea565b3390505b90565b6000600760009054906101000a900473ffffffffffffffffffffffffffffffffffffffff1673ffffffffffffffffffffffffffffffffffffffff168273ffffffffffffffffffffffffffffffffffffffff16149050919050565b82805462000355906200070a565b90600052602060002090601f016020900481019282620003795760008555620003c5565b82601f106200039457805160ff1916838001178555620003c5565b82800160010185558215620003c5579182015b82811115620003c4578251825591602001919060010190620003a7565b5b509050620003d49190620003d8565b5090565b5b80821115620003f3576000816000905550600101620003d9565b5090565b60006200040e620004088462000631565b62000608565b905080838252602082019050828560208602820111156200042e57600080fd5b60005b85811015620004625781620004478882620004b1565b84526020840193506020830192505060018101905062000431565b5050509392505050565b6000620004836200047d8462000660565b62000608565b9050828152602081018484840111156200049c57600080fd5b620004a9848285620006d4565b509392505050565b600081519050620004c28162000862565b92915050565b600082601f830112620004da57600080fd5b8151620004ec848260208601620003f7565b91505092915050565b600082601f8301126200050757600080fd5b8151620005198482602086016200046c565b91505092915050565b600080600080600060a086880312156200053b57600080fd5b600086015167ffffffffffffffff8111156200055657600080fd5b6200056488828901620004f5565b955050602086015167ffffffffffffffff8111156200058257600080fd5b6200059088828901620004f5565b945050604086015167ffffffffffffffff811115620005ae57600080fd5b620005bc88828901620004c8565b935050606086015167ffffffffffffffff811115620005da57600080fd5b620005e888828901620004f5565b9250506080620005fb88828901620004b1565b9150509295509295909350565b60006200061462000627565b905062000622828262000740565b919050565b6000604051905090565b600067ffffffffffffffff8211156200064f576200064e62000822565b5b602082029050602081019050919050565b600067ffffffffffffffff8211156200067e576200067d62000822565b5b620006898262000851565b9050602081019050919050565b6000620006a382620006aa565b9050919050565b600073ffffffffffffffffffffffffffffffffffffffff82169050919050565b6000819050919050565b60005b83811015620006f4578082015181840152602081019050620006d7565b8381111562000704576000848401525b50505050565b600060028204905060018216806200072357607f821691505b602082108114156200073a5762000739620007f3565b5b50919050565b6200074b8262000851565b810181811067ffffffffffffffff821117156200076d576200076c62000822565b5b80604052505050565b60006200078382620006ca565b91507fffffffffffffffffffffffffffffffffffffffffffffffffffffffffffffffff821415620007b957620007b8620007c4565b5b600182019050919050565b7f4e487b7100000000000000000000000000000000000000000000000000000000600052601160045260246000fd5b7f4e487b7100000000000000000000000000000000000000000000000000000000600052602260045260246000fd5b7f4e487b7100000000000000000000000000000000000000000000000000000000600052604160045260246000fd5b6000601f19601f8301169050919050565b6200086d8162000696565b81146200087957600080fd5b50565b61324b806200088c6000396000f3fe608060405234801561001057600080fd5b50600436106101585760003560e01c80636352211e116100c3578063a22cb4651161007c578063a22cb465146103b5578063b88d4fde146103d1578063c87b56dd146103ed578063d5abeb011461041d578063e985e9c51461043b578063f2fde38b1461046b57610158565b80636352211e146102f157806370a0823114610321578063715018a6146103515780637da0a8771461035b5780638da5cb5b1461037957806395d89b411461039757610158565b806323b872dd1161011557806323b872dd1461021f57806332531c3c1461023b57806342842e0e1461026b578063486ff0cd1461028757806355f804b3146102a5578063572b6c05146102c157610158565b806301ffc9a71461015d57806306fdde031461018d578063081812fc146101ab578063095ea7b3146101db5780631249c58b146101f757806317d70f7c14610201575b600080fd5b610177600480360381019061017291906120f4565b610487565b60405161018491906125ed565b60405180910390f35b610195610569565b6040516101a29190612608565b60405180910390f35b6101c560048036038101906101c09190612187565b6105fb565b6040516101d29190612586565b60405180910390f35b6101f560048036038101906101f091906120b8565b610680565b005b6101ff610798565b005b6102096108f0565b604051610216919061288a565b60405180910390f35b61023960048036038101906102349190611fb2565b6108f6565b005b61025560048036038101906102509190611f4d565b610956565b60405161026291906125ed565b60405180910390f35b61028560048036038101906102809190611fb2565b610976565b005b61028f610996565b60405161029c9190612608565b60405180910390f35b6102bf60048036038101906102ba9190612146565b6109d3565b005b6102db60048036038101906102d69190611f4d565b610a69565b6040516102e891906125ed565b60405180910390f35b61030b60048036038101906103069190612187565b610ac3565b6040516103189190612586565b60405180910390f35b61033b60048036038101906103369190611f4d565b610b75565b604051610348919061288a565b60405180910390f35b610359610c2d565b005b610363610cb5565b6040516103709190612586565b60405180910390f35b610381610cdf565b60405161038e9190612586565b60405180910390f35b61039f610d09565b6040516103ac9190612608565b60405180910390f35b6103cf60048036038101906103ca919061207c565b610d9b565b005b6103eb60048036038101906103e69190612001565b610db1565b005b61040760048036038101906104029190612187565b610e13565b6040516104149190612608565b60405180910390f35b610425610eb2565b604051610432919061288a565b60405180910390f35b61045560048036038101906104509190611f76565b610eb8565b60405161046291906125ed565b60405180910390f35b61048560048036038101906104809190611f4d565b610f4c565b005b60007f80ac58cd000000000000000000000000000000000000000000000000000000007bffffffffffffffffffffffffffffffffffffffffffffffffffffffff1916827bffffffffffffffffffffffffffffffffffffffffffffffffffffffff1916148061055257507f5b5e139f000000000000000000000000000000000000000000000000000000007bffffffffffffffffffffffffffffffffffffffffffffffffffffffff1916827bffffffffffffffffffffffffffffffffffffffffffffffffffffffff1916145b8061056257506105618261107b565b5b9050919050565b60606000805461057890612b3a565b80601f01602080910402602001604051908101604052809291908181526020018280546105a490612b3a565b80156105f15780601f106105c6576101008083540402835291602001916105f1565b820191906000526020600020905b8154815290600101906020018083116105d457829003601f168201915b5050505050905090565b6000610606826110e5565b610645576040517f08c379a000000000000000000000000000000000000000000000000000000000815260040161063c906127ea565b60405180910390fd5b6004600083815260200190815260200160002060009054906101000a900473ffffffffffffffffffffffffffffffffffffffff169050919050565b600061068b82610ac3565b90508073ffffffffffffffffffffffffffffffffffffffff168373ffffffffffffffffffffffffffffffffffffffff1614156106fc576040517f08c379a00000000000000000000000000000000000000000000000000000000081526004016106f39061284a565b60405180910390fd5b8073ffffffffffffffffffffffffffffffffffffffff1661071b611151565b73ffffffffffffffffffffffffffffffffffffffff16148061074a575061074981610744611151565b610eb8565b5b610789576040517f08c379a00000000000000000000000000000000000000000000000000000000081526004016107809061272a565b60405180910390fd5b6107938383611160565b505050565b600860006107a4611151565b73ffffffffffffffffffffffffffffffffffffffff1673ffffffffffffffffffffffffffffffffffffffff16815260200190815260200160002060009054906101000a900460ff1661082b576040517f08c379a00000000000000000000000000000000000000000000000000000000081526004016108229061262a565b60405180910390fd5b600954600a5410610871576040517f08c379a00000000000000000000000000000000000000000000000000000000081526004016108689061278a565b60405180910390fd5b600061088361087e611151565b610b75565b146108c3576040517f08c379a00000000000000000000000000000000000000000000000000000000081526004016108ba906127aa565b60405180910390fd5b6108d66108ce611151565b600a54611219565b600a60008154809291906108e990612b9d565b9190505550565b600a5481565b610907610901611151565b82611237565b610946576040517f08c379a000000000000000000000000000000000000000000000000000000000815260040161093d9061286a565b60405180910390fd5b610951838383611315565b505050565b60086020528060005260406000206000915054906101000a900460ff1681565b61099183838360405180602001604052806000815250610db1565b505050565b60606040518060400160405280600181526020017f3100000000000000000000000000000000000000000000000000000000000000815250905090565b6109db611151565b73ffffffffffffffffffffffffffffffffffffffff166109f9610cdf565b73ffffffffffffffffffffffffffffffffffffffff1614610a4f576040517f08c379a0000000000000000000000000000000000000000000000000000000008152600401610a469061280a565b60405180910390fd5b80600b9080519060200190610a65929190611d71565b5050565b6000600760009054906101000a900473ffffffffffffffffffffffffffffffffffffffff1673ffffffffffffffffffffffffffffffffffffffff168273ffffffffffffffffffffffffffffffffffffffff16149050919050565b6000806002600084815260200190815260200160002060009054906101000a900473ffffffffffffffffffffffffffffffffffffffff169050600073ffffffffffffffffffffffffffffffffffffffff168173ffffffffffffffffffffffffffffffffffffffff161415610b6c576040517f08c379a0000000000000000000000000000000000000000000000000000000008152600401610b639061276a565b60405180910390fd5b80915050919050565b60008073ffffffffffffffffffffffffffffffffffffffff168273ffffffffffffffffffffffffffffffffffffffff161415610be6576040517f08c379a0000000000000000000000000000000000000000000000000000000008152600401610bdd9061274a565b60405180910390fd5b600360008373ffffffffffffffffffffffffffffffffffffffff1673ffffffffffffffffffffffffffffffffffffffff168152602001908152602001600020549050919050565b610c35611151565b73ffffffffffffffffffffffffffffffffffffffff16610c53610cdf565b73ffffffffffffffffffffffffffffffffffffffff1614610ca9576040517f08c379a0000000000000000000000000000000000000000000000000000000008152600401610ca09061280a565b60405180910390fd5b610cb3600061157c565b565b6000600760009054906101000a900473ffffffffffffffffffffffffffffffffffffffff16905090565b6000600660009054906101000a900473ffffffffffffffffffffffffffffffffffffffff16905090565b606060018054610d1890612b3a565b80601f0160208091040260200160405190810160405280929190818152602001828054610d4490612b3a565b8015610d915780601f10610d6657610100808354040283529160200191610d91565b820191906000526020600020905b815481529060010190602001808311610d7457829003601f168201915b5050505050905090565b610dad610da6611151565b8383611642565b5050565b610dc2610dbc611151565b83611237565b610e01576040517f08c379a0000000000000000000000000000000000000000000000000000000008152600401610df89061286a565b60405180910390fd5b610e0d848484846117af565b50505050565b6060610e1e826110e5565b610e5d576040517f08c379a0000000000000000000000000000000000000000000000000000000008152600401610e549061282a565b60405180910390fd5b6000610e6761180b565b90506000815111610e875760405180602001604052806000815250610eaa565b8083604051602001610e9a929190612553565b6040516020818303038152906040525b915050919050565b60095481565b6000600560008473ffffffffffffffffffffffffffffffffffffffff1673ffffffffffffffffffffffffffffffffffffffff16815260200190815260200160002060008373ffffffffffffffffffffffffffffffffffffffff1673ffffffffffffffffffffffffffffffffffffffff16815260200190815260200160002060009054906101000a900460ff16905092915050565b610f54611151565b73ffffffffffffffffffffffffffffffffffffffff16610f72610cdf565b73ffffffffffffffffffffffffffffffffffffffff1614610fc8576040517f08c379a0000000000000000000000000000000000000000000000000000000008152600401610fbf9061280a565b60405180910390fd5b600073ffffffffffffffffffffffffffffffffffffffff168173ffffffffffffffffffffffffffffffffffffffff161415611038576040517f08c379a000000000000000000000000000000000000000000000000000000000815260040161102f9061266a565b60405180910390fd5b6110418161157c565b50565b60006014600036905010158015611060575061105f33610a69565b5b1561107457601436033560601c9050611078565b3390505b90565b60007f01ffc9a7000000000000000000000000000000000000000000000000000000007bffffffffffffffffffffffffffffffffffffffffffffffffffffffff1916827bffffffffffffffffffffffffffffffffffffffffffffffffffffffff1916149050919050565b60008073ffffffffffffffffffffffffffffffffffffffff166002600084815260200190815260200160002060009054906101000a900473ffffffffffffffffffffffffffffffffffffffff1673ffffffffffffffffffffffffffffffffffffffff1614159050919050565b600061115b611044565b905090565b816004600083815260200190815260200160002060006101000a81548173ffffffffffffffffffffffffffffffffffffffff021916908373ffffffffffffffffffffffffffffffffffffffff160217905550808273ffffffffffffffffffffffffffffffffffffffff166111d383610ac3565b73ffffffffffffffffffffffffffffffffffffffff167f8c5be1e5ebec7d5bd14f71427d1e84f3dd0314c0f7b2291e5b200ac8c7c3b92560405160405180910390a45050565b61123382826040518060200160405280600081525061189d565b5050565b6000611242826110e5565b611281576040517f08c379a00000000000000000000000000000000000000000000000000000000081526004016112789061270a565b60405180910390fd5b600061128c83610ac3565b90508073ffffffffffffffffffffffffffffffffffffffff168473ffffffffffffffffffffffffffffffffffffffff1614806112ce57506112cd8185610eb8565b5b8061130c57508373ffffffffffffffffffffffffffffffffffffffff166112f4846105fb565b73ffffffffffffffffffffffffffffffffffffffff16145b91505092915050565b8273ffffffffffffffffffffffffffffffffffffffff1661133582610ac3565b73ffffffffffffffffffffffffffffffffffffffff161461138b576040517f08c379a00000000000000000000000000000000000000000000000000000000081526004016113829061268a565b60405180910390fd5b600073ffffffffffffffffffffffffffffffffffffffff168273ffffffffffffffffffffffffffffffffffffffff1614156113fb576040517f08c379a00000000000000000000000000000000000000000000000000000000081526004016113f2906126ca565b60405180910390fd5b6114068383836118f8565b611411600082611160565b6001600360008573ffffffffffffffffffffffffffffffffffffffff1673ffffffffffffffffffffffffffffffffffffffff16815260200190815260200160002060008282546114619190612a50565b925050819055506001600360008473ffffffffffffffffffffffffffffffffffffffff1673ffffffffffffffffffffffffffffffffffffffff16815260200190815260200160002060008282546114b8919061296f565b92505081905550816002600083815260200190815260200160002060006101000a81548173ffffffffffffffffffffffffffffffffffffffff021916908373ffffffffffffffffffffffffffffffffffffffff160217905550808273ffffffffffffffffffffffffffffffffffffffff168473ffffffffffffffffffffffffffffffffffffffff167fddf252ad1be2c89b69c2b068fc378daa952ba7f163c4a11628f55a4df523b3ef60405160405180910390a46115778383836119d3565b505050565b6000600660009054906101000a900473ffffffffffffffffffffffffffffffffffffffff16905081600660006101000a81548173ffffffffffffffffffffffffffffffffffffffff021916908373ffffffffffffffffffffffffffffffffffffffff1602179055508173ffffffffffffffffffffffffffffffffffffffff168173ffffffffffffffffffffffffffffffffffffffff167f8be0079c531659141344cd1fd0a4f28419497f9722a3daafe3b4186f6b6457e060405160405180910390a35050565b8173ffffffffffffffffffffffffffffffffffffffff168373ffffffffffffffffffffffffffffffffffffffff1614156116b1576040517f08c379a00000000000000000000000000000000000000000000000000000000081526004016116a8906126ea565b60405180910390fd5b80600560008573ffffffffffffffffffffffffffffffffffffffff1673ffffffffffffffffffffffffffffffffffffffff16815260200190815260200160002060008473ffffffffffffffffffffffffffffffffffffffff1673ffffffffffffffffffffffffffffffffffffffff16815260200190815260200160002060006101000a81548160ff0219169083151502179055508173ffffffffffffffffffffffffffffffffffffffff168373ffffffffffffffffffffffffffffffffffffffff167f17307eab39ab6107e8899845ad3d59bd9653f200f220920489ca2b5937696c31836040516117a291906125ed565b60405180910390a3505050565b6117ba848484611315565b6117c6848484846119d8565b611805576040517f08c379a00000000000000000000000000000000000000000000000000000000081526004016117fc9061264a565b60405180910390fd5b50505050565b6060600b805461181a90612b3a565b80601f016020809104026020016040519081016040528092919081815260200182805461184690612b3a565b80156118935780601f1061186857610100808354040283529160200191611893565b820191906000526020600020905b81548152906001019060200180831161187657829003601f168201915b5050505050905090565b6118a78383611b6f565b6118b460008484846119d8565b6118f3576040517f08c379a00000000000000000000000000000000000000000000000000000000081526004016118ea9061264a565b60405180910390fd5b505050565b611903838383611d49565b60003490508273ffffffffffffffffffffffffffffffffffffffff166108fc606483605f61193191906129f6565b61193b91906129c5565b9081150290604051600060405180830381858888f19350505050158015611966573d6000803e3d6000fd5b5061196f610cdf565b73ffffffffffffffffffffffffffffffffffffffff166108fc606483600561199791906129f6565b6119a191906129c5565b9081150290604051600060405180830381858888f193505050501580156119cc573d6000803e3d6000fd5b5050505050565b505050565b60006119f98473ffffffffffffffffffffffffffffffffffffffff16611d4e565b15611b62578373ffffffffffffffffffffffffffffffffffffffff1663150b7a02611a22611151565b8786866040518563ffffffff1660e01b8152600401611a4494939291906125a1565b602060405180830381600087803b158015611a5e57600080fd5b505af1925050508015611a8f57506040513d601f19601f82011682018060405250810190611a8c919061211d565b60015b611b12573d8060008114611abf576040519150601f19603f3d011682016040523d82523d6000602084013e611ac4565b606091505b50600081511415611b0a576040517f08c379a0000000000000000000000000000000000000000000000000000000008152600401611b019061264a565b60405180910390fd5b805181602001fd5b63150b7a0260e01b7bffffffffffffffffffffffffffffffffffffffffffffffffffffffff1916817bffffffffffffffffffffffffffffffffffffffffffffffffffffffff191614915050611b67565b600190505b949350505050565b600073ffffffffffffffffffffffffffffffffffffffff168273ffffffffffffffffffffffffffffffffffffffff161415611bdf576040517f08c379a0000000000000000000000000000000000000000000000000000000008152600401611bd6906127ca565b60405180910390fd5b611be8816110e5565b15611c28576040517f08c379a0000000000000000000000000000000000000000000000000000000008152600401611c1f906126aa565b60405180910390fd5b611c34600083836118f8565b6001600360008473ffffffffffffffffffffffffffffffffffffffff1673ffffffffffffffffffffffffffffffffffffffff1681526020019081526020016000206000828254611c84919061296f565b92505081905550816002600083815260200190815260200160002060006101000a81548173ffffffffffffffffffffffffffffffffffffffff021916908373ffffffffffffffffffffffffffffffffffffffff160217905550808273ffffffffffffffffffffffffffffffffffffffff16600073ffffffffffffffffffffffffffffffffffffffff167fddf252ad1be2c89b69c2b068fc378daa952ba7f163c4a11628f55a4df523b3ef60405160405180910390a4611d45600083836119d3565b5050565b505050565b6000808273ffffffffffffffffffffffffffffffffffffffff163b119050919050565b828054611d7d90612b3a565b90600052602060002090601f016020900481019282611d9f5760008555611de6565b82601f10611db857805160ff1916838001178555611de6565b82800160010185558215611de6579182015b82811115611de5578251825591602001919060010190611dca565b5b509050611df39190611df7565b5090565b5b80821115611e10576000816000905550600101611df8565b5090565b6000611e27611e22846128ca565b6128a5565b905082815260208101848484011115611e3f57600080fd5b611e4a848285612af8565b509392505050565b6000611e65611e60846128fb565b6128a5565b905082815260208101848484011115611e7d57600080fd5b611e88848285612af8565b509392505050565b600081359050611e9f816131b9565b92915050565b600081359050611eb4816131d0565b92915050565b600081359050611ec9816131e7565b92915050565b600081519050611ede816131e7565b92915050565b600082601f830112611ef557600080fd5b8135611f05848260208601611e14565b91505092915050565b600082601f830112611f1f57600080fd5b8135611f2f848260208601611e52565b91505092915050565b600081359050611f47816131fe565b92915050565b600060208284031215611f5f57600080fd5b6000611f6d84828501611e90565b91505092915050565b60008060408385031215611f8957600080fd5b6000611f9785828601611e90565b9250506020611fa885828601611e90565b9150509250929050565b600080600060608486031215611fc757600080fd5b6000611fd586828701611e90565b9350506020611fe686828701611e90565b9250506040611ff786828701611f38565b9150509250925092565b6000806000806080858703121561201757600080fd5b600061202587828801611e90565b945050602061203687828801611e90565b935050604061204787828801611f38565b925050606085013567ffffffffffffffff81111561206457600080fd5b61207087828801611ee4565b91505092959194509250565b6000806040838503121561208f57600080fd5b600061209d85828601611e90565b92505060206120ae85828601611ea5565b9150509250929050565b600080604083850312156120cb57600080fd5b60006120d985828601611e90565b92505060206120ea85828601611f38565b9150509250929050565b60006020828403121561210657600080fd5b600061211484828501611eba565b91505092915050565b60006020828403121561212f57600080fd5b600061213d84828501611ecf565b91505092915050565b60006020828403121561215857600080fd5b600082013567ffffffffffffffff81111561217257600080fd5b61217e84828501611f0e565b91505092915050565b60006020828403121561219957600080fd5b60006121a784828501611f38565b91505092915050565b6121b981612a84565b82525050565b6121c881612a96565b82525050565b60006121d98261292c565b6121e38185612942565b93506121f3818560208601612b07565b6121fc81612cac565b840191505092915050565b600061221282612937565b61221c8185612953565b935061222c818560208601612b07565b61223581612cac565b840191505092915050565b600061224b82612937565b6122558185612964565b9350612265818560208601612b07565b80840191505092915050565b600061227e601083612953565b915061228982612cbd565b602082019050919050565b60006122a1603283612953565b91506122ac82612ce6565b604082019050919050565b60006122c4602683612953565b91506122cf82612d35565b604082019050919050565b60006122e7602583612953565b91506122f282612d84565b604082019050919050565b600061230a601c83612953565b915061231582612dd3565b602082019050919050565b600061232d602483612953565b915061233882612dfc565b604082019050919050565b6000612350601983612953565b915061235b82612e4b565b602082019050919050565b6000612373602c83612953565b915061237e82612e74565b604082019050919050565b6000612396603883612953565b91506123a182612ec3565b604082019050919050565b60006123b9602a83612953565b91506123c482612f12565b604082019050919050565b60006123dc602983612953565b91506123e782612f61565b604082019050919050565b60006123ff601483612953565b915061240a82612fb0565b602082019050919050565b6000612422600e83612953565b915061242d82612fd9565b602082019050919050565b6000612445602083612953565b915061245082613002565b602082019050919050565b6000612468602c83612953565b91506124738261302b565b604082019050919050565b600061248b600583612964565b91506124968261307a565b600582019050919050565b60006124ae602083612953565b91506124b9826130a3565b602082019050919050565b60006124d1602f83612953565b91506124dc826130cc565b604082019050919050565b60006124f4602183612953565b91506124ff8261311b565b604082019050919050565b6000612517603183612953565b91506125228261316a565b604082019050919050565b61253681612aee565b82525050565b61254d61254882612aee565b612be6565b82525050565b600061255f8285612240565b915061256b828461253c565b60208201915061257a8261247e565b91508190509392505050565b600060208201905061259b60008301846121b0565b92915050565b60006080820190506125b660008301876121b0565b6125c360208301866121b0565b6125d0604083018561252d565b81810360608301526125e281846121ce565b905095945050505050565b600060208201905061260260008301846121bf565b92915050565b600060208201905081810360008301526126228184612207565b905092915050565b6000602082019050818103600083015261264381612271565b9050919050565b6000602082019050818103600083015261266381612294565b9050919050565b60006020820190508181036000830152612683816122b7565b9050919050565b600060208201905081810360008301526126a3816122da565b9050919050565b600060208201905081810360008301526126c3816122fd565b9050919050565b600060208201905081810360008301526126e381612320565b9050919050565b6000602082019050818103600083015261270381612343565b9050919050565b6000602082019050818103600083015261272381612366565b9050919050565b6000602082019050818103600083015261274381612389565b9050919050565b60006020820190508181036000830152612763816123ac565b9050919050565b60006020820190508181036000830152612783816123cf565b9050919050565b600060208201905081810360008301526127a3816123f2565b9050919050565b600060208201905081810360008301526127c381612415565b9050919050565b600060208201905081810360008301526127e381612438565b9050919050565b600060208201905081810360008301526128038161245b565b9050919050565b60006020820190508181036000830152612823816124a1565b9050919050565b60006020820190508181036000830152612843816124c4565b9050919050565b60006020820190508181036000830152612863816124e7565b9050919050565b600060208201905081810360008301526128838161250a565b9050919050565b600060208201905061289f600083018461252d565b92915050565b60006128af6128c0565b90506128bb8282612b6c565b919050565b6000604051905090565b600067ffffffffffffffff8211156128e5576128e4612c7d565b5b6128ee82612cac565b9050602081019050919050565b600067ffffffffffffffff82111561291657612915612c7d565b5b61291f82612cac565b9050602081019050919050565b600081519050919050565b600081519050919050565b600082825260208201905092915050565b600082825260208201905092915050565b600081905092915050565b600061297a82612aee565b915061298583612aee565b9250827fffffffffffffffffffffffffffffffffffffffffffffffffffffffffffffffff038211156129ba576129b9612bf0565b5b828201905092915050565b60006129d082612aee565b91506129db83612aee565b9250826129eb576129ea612c1f565b5b828204905092915050565b6000612a0182612aee565b9150612a0c83612aee565b9250817fffffffffffffffffffffffffffffffffffffffffffffffffffffffffffffffff0483118215151615612a4557612a44612bf0565b5b828202905092915050565b6000612a5b82612aee565b9150612a6683612aee565b925082821015612a7957612a78612bf0565b5b828203905092915050565b6000612a8f82612ace565b9050919050565b60008115159050919050565b60007fffffffff0000000000000000000000000000000000000000000000000000000082169050919050565b600073ffffffffffffffffffffffffffffffffffffffff82169050919050565b6000819050919050565b82818337600083830152505050565b60005b83811015612b25578082015181840152602081019050612b0a565b83811115612b34576000848401525b50505050565b60006002820490506001821680612b5257607f821691505b60208210811415612b6657612b65612c4e565b5b50919050565b612b7582612cac565b810181811067ffffffffffffffff82111715612b9457612b93612c7d565b5b80604052505050565b6000612ba882612aee565b91507fffffffffffffffffffffffffffffffffffffffffffffffffffffffffffffffff821415612bdb57612bda612bf0565b5b600182019050919050565b6000819050919050565b7f4e487b7100000000000000000000000000000000000000000000000000000000600052601160045260246000fd5b7f4e487b7100000000000000000000000000000000000000000000000000000000600052601260045260246000fd5b7f4e487b7100000000000000000000000000000000000000000000000000000000600052602260045260246000fd5b7f4e487b7100000000000000000000000000000000000000000000000000000000600052604160045260246000fd5b6000601f19601f8301169050919050565b7f4e6f7420696e2057686974656c69737400000000000000000000000000000000600082015250565b7f4552433732313a207472616e7366657220746f206e6f6e20455243373231526560008201527f63656976657220696d706c656d656e7465720000000000000000000000000000602082015250565b7f4f776e61626c653a206e6577206f776e657220697320746865207a65726f206160008201527f6464726573730000000000000000000000000000000000000000000000000000602082015250565b7f4552433732313a207472616e736665722066726f6d20696e636f72726563742060008201527f6f776e6572000000000000000000000000000000000000000000000000000000602082015250565b7f4552433732313a20746f6b656e20616c7265616479206d696e74656400000000600082015250565b7f4552433732313a207472616e7366657220746f20746865207a65726f2061646460008201527f7265737300000000000000000000000000000000000000000000000000000000602082015250565b7f4552433732313a20617070726f766520746f2063616c6c657200000000000000600082015250565b7f4552433732313a206f70657261746f7220717565727920666f72206e6f6e657860008201527f697374656e7420746f6b656e0000000000000000000000000000000000000000602082015250565b7f4552433732313a20617070726f76652063616c6c6572206973206e6f74206f7760008201527f6e6572206e6f7220617070726f76656420666f7220616c6c0000000000000000602082015250565b7f4552433732313a2062616c616e636520717565727920666f7220746865207a6560008201527f726f206164647265737300000000000000000000000000000000000000000000602082015250565b7f4552433732313a206f776e657220717565727920666f72206e6f6e657869737460008201527f656e7420746f6b656e0000000000000000000000000000000000000000000000602082015250565b7f436f6c6c656374696f6e20536f6c64206f757421000000000000000000000000600082015250565b7f416c7265616479204d696e746564000000000000000000000000000000000000600082015250565b7f4552433732313a206d696e7420746f20746865207a65726f2061646472657373600082015250565b7f4552433732313a20617070726f76656420717565727920666f72206e6f6e657860008201527f697374656e7420746f6b656e0000000000000000000000000000000000000000602082015250565b7f2e6a736f6e000000000000000000000000000000000000000000000000000000600082015250565b7f4f776e61626c653a2063616c6c6572206973206e6f7420746865206f776e6572600082015250565b7f4552433732314d657461646174613a2055524920717565727920666f72206e6f60008201527f6e6578697374656e7420746f6b656e0000000000000000000000000000000000602082015250565b7f4552433732313a20617070726f76616c20746f2063757272656e74206f776e6560008201527f7200000000000000000000000000000000000000000000000000000000000000602082015250565b7f4552433732313a207472616e736665722063616c6c6572206973206e6f74206f60008201527f776e6572206e6f7220617070726f766564000000000000000000000000000000602082015250565b6131c281612a84565b81146131cd57600080fd5b50565b6131d981612a96565b81146131e457600080fd5b50565b6131f081612aa2565b81146131fb57600080fd5b50565b61320781612aee565b811461321257600080fd5b5056fea2646970667358221220cb1fcddf2d27392f879c068ba0e02d86e62f3aee60b42f752161f0c15aa638e064736f6c63430008040033",
  "linkReferences": {},
  "deployedLinkReferences": {}
}